:1000000000308A00482800000A108A100A1182076E
:100010000E34043404340434043404340E34F7014C
:10002000F801250803102618F707F70CF80CA61896
:10003000F707F70CF80C2619F707F70CF80CA619B8
:10004000F707F70CF80C261AF707F70CF80CA61AA6
:10005000F707F70CF80C261BF707F70CF80CA61B94
:10006000F707F70CF80C080025308400831300080C
:10007000031947280630F800F701F70B3D28F80B65
:100080003C287B30F700F70B4328800B3A28932855
:1000900003081F39830007309F00831383168501EF
:1000A0008312850183168601831286012008A5002C
:1000B0000730A6000F20210878070420F800A300CD
:1000C000A1012108073C031CA0282008A500073037
:1000D000A6000F20210878070420F800A300A20141
:1000E0002208073C031C8C280310A30D03187A2850
:1000F00085107B2885148316851083122208003C06
:1001000003188A2883160510831205148316051018
:1001100083120510A20A7028831605118312051593
:100120000530A5003428831605118312051101300E
:10013000A40783168601831224088600A10A612879
:0401400056286300DA
:02400E00213F50
:00000001FF
;PIC16F627A
;CRC=F41D  CREATED="06-déc.-19 00:05"
