:1000000003308A00042B00000A108A100A118207AC
:100010002034203420342034203420342034493417
:10002000533449344D344734203400340A108A1094
:100030000A118207FF34FF34FF34FF34FF34FF34EA
:10004000FF34FB34FB34FB34FB34FB34FF34FB3430
:10005000F534F534F534FF34FF34FF34FF34F53430
:10006000F534E034F534E034F534F534FB34F03471
:10007000EB34F134FA34E134FB34E334EA34E5347C
:10008000FB34F434EA34F834F734EB34EB34F7343B
:10009000EA34ED34F234F934F934FD34FB34FF340E
:1000A000FF34FF34FD34FB34F734F734F734FB34DA
:1000B000FD34F734FB34FD34FD34FD34FB34F734C8
:1000C000FB34EA34F134FB34F134EA34FB34FF34EA
:1000D000FB34FB34E034FB34FB34FF34FF34FF34B7
:1000E000FF34F334F334FB34F734FF34FF34FF349C
:1000F000F134FF34FF34FF34FF34FF34FF34FF3476
:10010000FF34F334F334FF34FE34FD34FB34F7347E
:10011000EF34FF34F134EE34EC34EA34E634EE34C8
:10012000F134FB34F334FB34FB34FB34FB34F13473
:10013000F134EE34FE34F134EF34EF34E034F134A2
:10014000EE34FE34F934FE34EE34F134FD34F93457
:10015000F534ED34E034FD34FD34E034EF34E13493
:10016000FE34FE34FE34E134F934F734EF34E13454
:10017000EE34EE34F134E034FE34FD34FB34F73445
:10018000F734F734F134EE34EE34F134EE34EE3447
:10019000F134F134EE34EE34F034FE34FD34F33423
:1001A000FF34F334F334FF34F334F334FF34F334F3
:1001B000FB34F334F334FF34F334F334FD34FB34E1
:1001C000F734EF34F734FB34FD34FF34FF34F134CB
:1001D000FF34F134FF34FF34F734FB34FD34FE34A4
:1001E000FD34FB34F734F134EE34FE34FD34FB34AB
:1001F000FF34FB3400000A148A100A11023E03186F
:100200008A0A8200F134EE34FE34F234EA34EA34FD
:10021000F134FB34F534EE34EE34E034EE34EE34C5
:10022000E134F634F634F134F634F634E134F134B2
:10023000EE34EF34EF34EF34EE34F134E134F634AD
:10024000F634F634F634F634E134E034EF34EF3497
:10025000E334EF34EF34E034E034EF34EF34E334BC
:10026000EF34EF34EF34F134EE34EF34E834EE347D
:10027000EE34F134EE34EE34EE34E034EE34EE3479
:10028000EE34F134FB34FB34FB34FB34FB34F13417
:10029000F834FD34FD34FD34FD34FD34F334EE34F4
:1002A000ED34EB34E734EB34ED34EE34EF34EF344B
:1002B000EF34EF34EF34EF34E034EE34E434EA3446
:1002C000EA34EE34EE34EE34EE34E634EA34EC3430
:1002D000EE34EE34EE34F134EE34EE34EE34EE340B
:1002E000EE34F134E134EE34EE34E134EF34EF3413
:1002F000EF34F134EE34EE34EE34EA34ED34F234EB
:10030000E134EE34EE34E134EB34ED34EE34F134F8
:10031000EE34EF34F134FE34EE34F134E034FB34B7
:10032000FB34FB34FB34FB34FB34EE34EE34EE347C
:10033000EE34EE34EE34F134EE34EE34EE34F534A3
:10034000F534FB34FB34EE34EE34EE34EA34EA3484
:10035000E434EE34EE34EE34F534FB34F534EE347C
:10036000EE34EE34EE34F534FB34FB34FB34FB3442
:10037000E034FE34FD34FB34F734EF34E034F13450
:10038000F734F734F734F734F734F134FF34EF341B
:10039000F734FB34FD34FE34FF34F134FD34FD34E6
:1003A000FD34FD34FD34F134FB34F534EE34FF34E8
:1003B000FF34FF34FF34FF34FF34FF34FF34FF34A5
:1003C000FF34E0340A148A100A11E93E03188A0A3D
:1003D0008200F334F334F734FB34FF34FF34FF345A
:1003E000FF34FF34F134FE34F034EE34F134EF34C2
:1003F000EF34E934E634EE34E634E934FF34FF34E4
:10040000F834F734F734F734F834FE34FE34F23489
:10041000EC34EE34EC34F234FF34FF34F134EE34A7
:10042000E034EF34F134F934F634F734E134F734AE
:10043000F734F734FF34FF34F034EE34F034FE3464
:10044000F134EF34EF34E934E634EE34EE34EE34A4
:10045000FB34FF34F334FB34FB34FB34F134FD3430
:10046000FF34F934FD34FD34FD34F334F734F7341C
:10047000F634F534F334F534F634F334FB34FB342A
:10048000FB34FB34FB34F134FF34FF34E534EA341D
:10049000EA34EA34EA34FF34FF34E934E634EE3443
:1004A000EE34EE34FF34FF34F134EE34EE34EE3417
:1004B000F134FF34FF34E134EE34E134EF34EF341F
:1004C000FF34FF34F034EE34F034FE34FE34FF34C5
:1004D000FF34E934E634EF34EF34EF34FF34FF34E3
:1004E000F034EF34F134FE34E134FB34FB34F034D7
:1004F000FB34FB34FB34FC34FF34FF34EE34EE3495
:10050000EE34EC34F234FF34FF34EE34EE34EE34B7
:10051000F534FB34FF34FF34EE34EE34EA34EA349D
:10052000F434FF34FF34EE34F534FB34F534EE3478
:10053000FF34FF34EE34F534FB34FB34F334FF3452
:10054000FF34E034FD34FB34F734E034F934F7346D
:10055000F734E734F734F734F934FB34FB34FB3445
:10056000FF34FB34FB34FB34F334FD34FD34FC3412
:10057000FD34FD34F334F534EA34FF34FF34FF3412
:10058000FF34FF34003400340034003400340034CD
:100590000034F701F8012A0803102B18F707F70CAD
:1005A000F80CAB18F707F70CF80C2B19F707F70C3A
:1005B000F80CAB19F707F70CF80C2B1AF707F70C28
:1005C000F80CAB1AF707F70CF80C2B1BF707F70C16
:1005D000F80CAB1BF707F70CF80C08002830840068
:1005E000831300080319012B0630F800F701F70BFD
:1005F000F72AF80BF62A7B30F700F70BFD2A800B61
:10060000F42A8A110A129A2B03081F3983008316D1
:100610001F149F141F159F1107309C008313850121
:10062000831285018316860183128601A1012108A8
:10063000073C031CA72B2308A00008302307200237
:100640000318802B200804203F3C031C362B200875
:100650000420E03EA900AA000730AB00C92221080F
:1006600078071620F800A700A7095D2B20080420B2
:100670005F3C031C4A2B20080420C03EA900AA00AE
:100680000730AB00C92221087807FA20F800A7003C
:10069000A7095D2B200804207E3C031C5D2B20084D
:1006A0000420A03EA900AA000730AB00C9222108FF
:1006B0007807E221F800A700A7092108073C0319E1
:1006C000A701A2012208073C031C7E2B0310A70DE3
:1006D00003186C2B85106D2B8514831685108312DF
:1006E0002208013C03187C2B831605108312051485
:1006F0008316051083120510A20A622BA00A1D2B77
:100700008316851083128510A20124082202031883
:10071000932B83160510831205148316051083127C
:100720000510A20A852B83160511831205150530C5
:10073000A800EE2A83160511831205110130A607C1
:1007400083168601831226088600A10A172B013022
:10075000A5072508053C031DB02BA5010130A40702
:100760002408063C031DB72BA4010130A30723086E
:0A0770000C3C0319A301162B6300D3
:02400E00313F40
:00000001FF
;PIC16F877A
;CRC=04E0  CREATED="08-déc.-19 19:55"
